{
  "_format": "hh-sol-artifact-1",
  "contractName": "MultisigWallet2",
  "sourceName": "contracts/MultisigWallet2.sol",
  "abi": [
    {
      "inputs": [
        {
          "internalType": "address[]",
          "name": "_owners",
          "type": "address[]"
        },
        {
          "internalType": "string[]",
          "name": "_names",
          "type": "string[]"
        }
      ],
      "stateMutability": "nonpayable",
      "type": "constructor"
    },
    {
      "anonymous": false,
      "inputs": [
        {
          "indexed": false,
          "internalType": "uint256",
          "name": "_value",
          "type": "uint256"
        },
        {
          "indexed": false,
          "internalType": "address",
          "name": "_sender",
          "type": "address"
        },
        {
          "indexed": false,
          "internalType": "uint256",
          "name": "_newBalance",
          "type": "uint256"
        }
      ],
      "name": "Deposit",
      "type": "event"
    },
    {
      "anonymous": false,
      "inputs": [
        {
          "indexed": false,
          "internalType": "address",
          "name": "_owner",
          "type": "address"
        },
        {
          "indexed": false,
          "internalType": "string",
          "name": "_name",
          "type": "string"
        }
      ],
      "name": "OwnerAdded",
      "type": "event"
    },
    {
      "anonymous": false,
      "inputs": [
        {
          "indexed": false,
          "internalType": "uint256",
          "name": "_txId",
          "type": "uint256"
        },
        {
          "indexed": false,
          "internalType": "address",
          "name": "_owner",
          "type": "address"
        }
      ],
      "name": "TxApproved",
      "type": "event"
    },
    {
      "anonymous": false,
      "inputs": [
        {
          "indexed": false,
          "internalType": "uint256",
          "name": "_txId",
          "type": "uint256"
        },
        {
          "indexed": false,
          "internalType": "uint256",
          "name": "_timestamp",
          "type": "uint256"
        }
      ],
      "name": "TxExecuted",
      "type": "event"
    },
    {
      "anonymous": false,
      "inputs": [
        {
          "indexed": false,
          "internalType": "uint256",
          "name": "_txId",
          "type": "uint256"
        },
        {
          "indexed": false,
          "internalType": "address",
          "name": "_owner",
          "type": "address"
        }
      ],
      "name": "TxRevoked",
      "type": "event"
    },
    {
      "anonymous": false,
      "inputs": [
        {
          "indexed": false,
          "internalType": "uint256",
          "name": "_txId",
          "type": "uint256"
        },
        {
          "indexed": false,
          "internalType": "address",
          "name": "_to",
          "type": "address"
        },
        {
          "indexed": false,
          "internalType": "uint256",
          "name": "_value",
          "type": "uint256"
        },
        {
          "indexed": false,
          "internalType": "address",
          "name": "_submitter",
          "type": "address"
        },
        {
          "indexed": false,
          "internalType": "uint256",
          "name": "_timestamp",
          "type": "uint256"
        }
      ],
      "name": "TxSubmitted",
      "type": "event"
    },
    {
      "inputs": [
        {
          "internalType": "address",
          "name": "_owner",
          "type": "address"
        },
        {
          "internalType": "string",
          "name": "_name",
          "type": "string"
        }
      ],
      "name": "addOwner",
      "outputs": [],
      "stateMutability": "nonpayable",
      "type": "function"
    },
    {
      "inputs": [
        {
          "internalType": "uint256",
          "name": "_txId",
          "type": "uint256"
        }
      ],
      "name": "approveTx",
      "outputs": [],
      "stateMutability": "nonpayable",
      "type": "function"
    },
    {
      "inputs": [
        {
          "internalType": "uint256",
          "name": "_txId",
          "type": "uint256"
        }
      ],
      "name": "executeTx",
      "outputs": [],
      "stateMutability": "nonpayable",
      "type": "function"
    },
    {
      "inputs": [
        {
          "internalType": "uint256",
          "name": "_txId",
          "type": "uint256"
        }
      ],
      "name": "getApprovalCount",
      "outputs": [
        {
          "internalType": "uint256",
          "name": "",
          "type": "uint256"
        }
      ],
      "stateMutability": "view",
      "type": "function"
    },
    {
      "inputs": [],
      "name": "getBalance",
      "outputs": [
        {
          "internalType": "uint256",
          "name": "",
          "type": "uint256"
        }
      ],
      "stateMutability": "view",
      "type": "function"
    },
    {
      "inputs": [],
      "name": "getOwners",
      "outputs": [
        {
          "internalType": "address[]",
          "name": "",
          "type": "address[]"
        },
        {
          "internalType": "string[]",
          "name": "",
          "type": "string[]"
        }
      ],
      "stateMutability": "view",
      "type": "function"
    },
    {
      "inputs": [],
      "name": "getTransactions",
      "outputs": [
        {
          "components": [
            {
              "internalType": "address",
              "name": "to",
              "type": "address"
            },
            {
              "internalType": "address",
              "name": "submitter",
              "type": "address"
            },
            {
              "internalType": "uint256",
              "name": "submittedAt",
              "type": "uint256"
            },
            {
              "internalType": "uint256",
              "name": "executedAt",
              "type": "uint256"
            },
            {
              "internalType": "uint256",
              "name": "approvals",
              "type": "uint256"
            },
            {
              "internalType": "uint256",
              "name": "value",
              "type": "uint256"
            },
            {
              "internalType": "bool",
              "name": "executed",
              "type": "bool"
            }
          ],
          "internalType": "struct MultisigWallet2.Transaction[]",
          "name": "",
          "type": "tuple[]"
        }
      ],
      "stateMutability": "view",
      "type": "function"
    },
    {
      "inputs": [
        {
          "internalType": "address",
          "name": "_owner",
          "type": "address"
        },
        {
          "internalType": "uint256",
          "name": "_txId",
          "type": "uint256"
        }
      ],
      "name": "isOwnerApproved",
      "outputs": [
        {
          "internalType": "bool",
          "name": "",
          "type": "bool"
        }
      ],
      "stateMutability": "view",
      "type": "function"
    },
    {
      "inputs": [],
      "name": "required",
      "outputs": [
        {
          "internalType": "uint256",
          "name": "",
          "type": "uint256"
        }
      ],
      "stateMutability": "view",
      "type": "function"
    },
    {
      "inputs": [
        {
          "internalType": "uint256",
          "name": "_txId",
          "type": "uint256"
        }
      ],
      "name": "revokeTx",
      "outputs": [],
      "stateMutability": "nonpayable",
      "type": "function"
    },
    {
      "inputs": [
        {
          "internalType": "address",
          "name": "_to",
          "type": "address"
        },
        {
          "internalType": "uint256",
          "name": "_value",
          "type": "uint256"
        }
      ],
      "name": "submitTx",
      "outputs": [],
      "stateMutability": "nonpayable",
      "type": "function"
    },
    {
      "stateMutability": "payable",
      "type": "receive"
    }
  ],
  "bytecode": "0x60806040523480156200001157600080fd5b506040516200304038038062003040833981810160405281019062000037919062000606565b60008251116200007e576040517f08c379a0000000000000000000000000000000000000000000000000000000008152600401620000759062000727565b60405180910390fd5b8051825114620000c5576040517f08c379a0000000000000000000000000000000000000000000000000000000008152600401620000bc906200076b565b60405180910390fd5b6000805b83518110156200032057838181518110620000e957620000e862000a70565b5b60200260200101519150600073ffffffffffffffffffffffffffffffffffffffff168273ffffffffffffffffffffffffffffffffffffffff16141562000166576040517f08c379a00000000000000000000000000000000000000000000000000000000081526004016200015d9062000749565b60405180910390fd5b600460008373ffffffffffffffffffffffffffffffffffffffff1673ffffffffffffffffffffffffffffffffffffffff16815260200190815260200160002060009054906101000a900460ff1615620001f6576040517f08c379a0000000000000000000000000000000000000000000000000000000008152600401620001ed906200078d565b60405180910390fd5b6001600460008473ffffffffffffffffffffffffffffffffffffffff1673ffffffffffffffffffffffffffffffffffffffff16815260200190815260200160002060006101000a81548160ff0219169083151502179055506001829080600181540180825580915050600190039060005260206000200160009091909190916101000a81548173ffffffffffffffffffffffffffffffffffffffff021916908373ffffffffffffffffffffffffffffffffffffffff1602179055506002838281518110620002c957620002c862000a70565b5b60200260200101519080600181540180825580915050600190039060005260206000200160009091909190915090805190602001906200030b92919062000344565b5080620003189062000995565b9050620000c9565b5060026001805490506200033591906200087d565b60058190555050505062000bb6565b828054620003529062000929565b90600052602060002090601f016020900481019282620003765760008555620003c2565b82601f106200039157805160ff1916838001178555620003c2565b82800160010185558215620003c2579182015b82811115620003c1578251825591602001919060010190620003a4565b5b509050620003d19190620003d5565b5090565b5b80821115620003f0576000816000905550600101620003d6565b5090565b60006200040b6200040584620007d8565b620007af565b9050808382526020820190508285602086028201111562000431576200043062000ad3565b5b60005b858110156200046557816200044a888262000556565b84526020840193506020830192505060018101905062000434565b5050509392505050565b600062000486620004808462000807565b620007af565b90508083825260208201905082856020860282011115620004ac57620004ab62000ad3565b5b60005b858110156200050157815167ffffffffffffffff811115620004d657620004d562000ace565b5b808601620004e58982620005d3565b85526020850194506020840193505050600181019050620004af565b5050509392505050565b6000620005226200051c8462000836565b620007af565b90508281526020810184848401111562000541576200054062000ad8565b5b6200054e848285620008f3565b509392505050565b600081519050620005678162000b9c565b92915050565b600082601f83011262000585576200058462000ace565b5b815162000597848260208601620003f4565b91505092915050565b600082601f830112620005b857620005b762000ace565b5b8151620005ca8482602086016200046f565b91505092915050565b600082601f830112620005eb57620005ea62000ace565b5b8151620005fd8482602086016200050b565b91505092915050565b6000806040838503121562000620576200061f62000ae2565b5b600083015167ffffffffffffffff81111562000641576200064062000add565b5b6200064f858286016200056d565b925050602083015167ffffffffffffffff81111562000673576200067262000add565b5b6200068185828601620005a0565b9150509250929050565b60006200069a601b836200086c565b9150620006a78262000af8565b602082019050919050565b6000620006c16015836200086c565b9150620006ce8262000b21565b602082019050919050565b6000620006e8601d836200086c565b9150620006f58262000b4a565b602082019050919050565b60006200070f6011836200086c565b91506200071c8262000b73565b602082019050919050565b6000602082019050818103600083015262000742816200068b565b9050919050565b600060208201905081810360008301526200076481620006b2565b9050919050565b600060208201905081810360008301526200078681620006d9565b9050919050565b60006020820190508181036000830152620007a88162000700565b9050919050565b6000620007bb620007ce565b9050620007c982826200095f565b919050565b6000604051905090565b600067ffffffffffffffff821115620007f657620007f562000a9f565b5b602082029050602081019050919050565b600067ffffffffffffffff82111562000825576200082462000a9f565b5b602082029050602081019050919050565b600067ffffffffffffffff82111562000854576200085362000a9f565b5b6200085f8262000ae7565b9050602081019050919050565b600082825260208201905092915050565b60006200088a82620008e9565b91506200089783620008e9565b925082620008aa57620008a962000a12565b5b828204905092915050565b6000620008c282620008c9565b9050919050565b600073ffffffffffffffffffffffffffffffffffffffff82169050919050565b6000819050919050565b60005b8381101562000913578082015181840152602081019050620008f6565b8381111562000923576000848401525b50505050565b600060028204905060018216806200094257607f821691505b6020821081141562000959576200095862000a41565b5b50919050565b6200096a8262000ae7565b810181811067ffffffffffffffff821117156200098c576200098b62000a9f565b5b80604052505050565b6000620009a282620008e9565b91507fffffffffffffffffffffffffffffffffffffffffffffffffffffffffffffffff821415620009d857620009d7620009e3565b5b600182019050919050565b7f4e487b7100000000000000000000000000000000000000000000000000000000600052601160045260246000fd5b7f4e487b7100000000000000000000000000000000000000000000000000000000600052601260045260246000fd5b7f4e487b7100000000000000000000000000000000000000000000000000000000600052602260045260246000fd5b7f4e487b7100000000000000000000000000000000000000000000000000000000600052603260045260246000fd5b7f4e487b7100000000000000000000000000000000000000000000000000000000600052604160045260246000fd5b600080fd5b600080fd5b600080fd5b600080fd5b600080fd5b6000601f19601f8301169050919050565b7f6174206c65617374206f6e65206f776e65722072657175697265640000000000600082015250565b7f6164647220302063616e2774206265206f776e65720000000000000000000000600082015250565b7f616464722026206e616d6520636f756e7420646f6e2774206d61746368000000600082015250565b7f6f776e657273206e6f7420756e69717565000000000000000000000000000000600082015250565b62000ba781620008b5565b811462000bb357600080fd5b50565b61247a8062000bc66000396000f3fe6080604052600436106100a05760003560e01c80635986aaca116100645780635986aaca146101ca57806383920e90146101f3578063a0d142bd1461021e578063a0e67e2b14610247578063ba7e7cab14610273578063dc8452cd146102b0576100e2565b80631087393a146100e757806312065fe01461011057806312ea66c31461013b5780633542758f1461017857806354b5fe80146101a1576100e2565b366100e2577feaa18152488ce5959073c9c79c88ca90b3d96c00de1f118cfaad664c3dab06b93433476040516100d893929190611d86565b60405180910390a1005b600080fd5b3480156100f357600080fd5b5061010e60048036038101906101099190611689565b6102db565b005b34801561011c57600080fd5b506101256105a5565b6040516101329190611d42565b60405180910390f35b34801561014757600080fd5b50610162600480360381019061015d9190611649565b6105ad565b60405161016f9190611bc7565b60405180910390f35b34801561018457600080fd5b5061019f600480360381019061019a91906115ed565b61065e565b005b3480156101ad57600080fd5b506101c860048036038101906101c39190611689565b610933565b005b3480156101d657600080fd5b506101f160048036038101906101ec9190611689565b610bb7565b005b3480156101ff57600080fd5b50610208610e80565b6040516102159190611ba5565b60405180910390f35b34801561022a57600080fd5b5061024560048036038101906102409190611649565b610fce565b005b34801561025357600080fd5b5061025c6112c8565b60405161026a929190611b6e565b60405180910390f35b34801561027f57600080fd5b5061029a60048036038101906102959190611689565b611432565b6040516102a79190611d42565b60405180910390f35b3480156102bc57600080fd5b506102c56114aa565b6040516102d29190611d42565b60405180910390f35b600460003373ffffffffffffffffffffffffffffffffffffffff1673ffffffffffffffffffffffffffffffffffffffff16815260200190815260200160002060009054906101000a900460ff16610367576040517f08c379a000000000000000000000000000000000000000000000000000000000815260040161035e90611c82565b60405180910390fd5b8060008054905081106103af576040517f08c379a00000000000000000000000000000000000000000000000000000000081526004016103a690611c02565b60405180910390fd5b81600081815481106103c4576103c36121a7565b5b906000526020600020906007020160060160009054906101000a900460ff1615610423576040517f08c379a000000000000000000000000000000000000000000000000000000000815260040161041a90611c42565b60405180910390fd5b600360003373ffffffffffffffffffffffffffffffffffffffff1673ffffffffffffffffffffffffffffffffffffffff168152602001908152602001600020600084815260200190815260200160002060009054906101000a900460ff16156104c1576040517f08c379a00000000000000000000000000000000000000000000000000000000081526004016104b890611ca2565b60405180910390fd5b6001600360003373ffffffffffffffffffffffffffffffffffffffff1673ffffffffffffffffffffffffffffffffffffffff168152602001908152602001600020600085815260200190815260200160002060006101000a81548160ff0219169083151502179055506001600084815481106105405761053f6121a7565b5b906000526020600020906007020160040160008282546105609190611f72565b925050819055507fa4c042f780e62163586b6166a85cc05e7726fb1393076143d04720a6a3934caf8333604051610598929190611d5d565b60405180910390a1505050565b600047905090565b60008160008054905081106105f7576040517f08c379a00000000000000000000000000000000000000000000000000000000081526004016105ee90611c02565b60405180910390fd5b600360008573ffffffffffffffffffffffffffffffffffffffff1673ffffffffffffffffffffffffffffffffffffffff168152602001908152602001600020600084815260200190815260200160002060009054906101000a900460ff1691505092915050565b600460003373ffffffffffffffffffffffffffffffffffffffff1673ffffffffffffffffffffffffffffffffffffffff16815260200190815260200160002060009054906101000a900460ff166106ea576040517f08c379a00000000000000000000000000000000000000000000000000000000081526004016106e190611c82565b60405180910390fd5b600073ffffffffffffffffffffffffffffffffffffffff168273ffffffffffffffffffffffffffffffffffffffff16141561075a576040517f08c379a000000000000000000000000000000000000000000000000000000000815260040161075190611c22565b60405180910390fd5b600460008373ffffffffffffffffffffffffffffffffffffffff1673ffffffffffffffffffffffffffffffffffffffff16815260200190815260200160002060009054906101000a900460ff16156107e7576040517f08c379a00000000000000000000000000000000000000000000000000000000081526004016107de90611d22565b60405180910390fd5b6001600460008473ffffffffffffffffffffffffffffffffffffffff1673ffffffffffffffffffffffffffffffffffffffff16815260200190815260200160002060006101000a81548160ff0219169083151502179055506001829080600181540180825580915050600190039060005260206000200160009091909190916101000a81548173ffffffffffffffffffffffffffffffffffffffff021916908373ffffffffffffffffffffffffffffffffffffffff1602179055506002819080600181540180825580915050600190039060005260206000200160009091909190915090805190602001906108dd9291906114b0565b5060026001805490506108f09190611fc8565b6005819055507f7adcb4720057d6b9b1d9dc7f206a6dc456794ecdbf145763cc55d76930c3ab868282604051610927929190611b3e565b60405180910390a15050565b80600080549050811061097b576040517f08c379a000000000000000000000000000000000000000000000000000000000815260040161097290611c02565b60405180910390fd5b81600081815481106109905761098f6121a7565b5b906000526020600020906007020160060160009054906101000a900460ff16156109ef576040517f08c379a00000000000000000000000000000000000000000000000000000000081526004016109e690611c42565b60405180910390fd5b6000808481548110610a0457610a036121a7565b5b9060005260206000209060070201905060055460008581548110610a2b57610a2a6121a7565b5b90600052602060002090600702016004015411610a7d576040517f08c379a0000000000000000000000000000000000000000000000000000000008152600401610a7490611ce2565b60405180910390fd5b60008160000160009054906101000a900473ffffffffffffffffffffffffffffffffffffffff1673ffffffffffffffffffffffffffffffffffffffff168260050154604051610acb90611b29565b60006040518083038185875af1925050503d8060008114610b08576040519150601f19603f3d011682016040523d82523d6000602084013e610b0d565b606091505b5050905080610b51576040517f08c379a0000000000000000000000000000000000000000000000000000000008152600401610b4890611cc2565b60405180910390fd5b60018260060160006101000a81548160ff0219169083151502179055504282600301819055507f14aa7b91f13e4df1bbb3b1f51e277729bee54a45e7b0f25618474166a2e8e3c88542604051610ba8929190611e10565b60405180910390a15050505050565b600460003373ffffffffffffffffffffffffffffffffffffffff1673ffffffffffffffffffffffffffffffffffffffff16815260200190815260200160002060009054906101000a900460ff16610c43576040517f08c379a0000000000000000000000000000000000000000000000000000000008152600401610c3a90611c82565b60405180910390fd5b806000805490508110610c8b576040517f08c379a0000000000000000000000000000000000000000000000000000000008152600401610c8290611c02565b60405180910390fd5b8160008181548110610ca057610c9f6121a7565b5b906000526020600020906007020160060160009054906101000a900460ff1615610cff576040517f08c379a0000000000000000000000000000000000000000000000000000000008152600401610cf690611c42565b60405180910390fd5b600360003373ffffffffffffffffffffffffffffffffffffffff1673ffffffffffffffffffffffffffffffffffffffff168152602001908152602001600020600084815260200190815260200160002060009054906101000a900460ff16610d9c576040517f08c379a0000000000000000000000000000000000000000000000000000000008152600401610d9390611d02565b60405180910390fd5b6000600360003373ffffffffffffffffffffffffffffffffffffffff1673ffffffffffffffffffffffffffffffffffffffff168152602001908152602001600020600085815260200190815260200160002060006101000a81548160ff021916908315150217905550600160008481548110610e1b57610e1a6121a7565b5b90600052602060002090600702016004016000828254610e3b9190611ff9565b925050819055507f24d83f69e25f86af362bf33f6e88d929ed67dc884cf0d3061660f5341a7e07c78333604051610e73929190611d5d565b60405180910390a1505050565b60606000805480602002602001604051908101604052809291908181526020016000905b82821015610fc557838290600052602060002090600702016040518060e00160405290816000820160009054906101000a900473ffffffffffffffffffffffffffffffffffffffff1673ffffffffffffffffffffffffffffffffffffffff1673ffffffffffffffffffffffffffffffffffffffff1681526020016001820160009054906101000a900473ffffffffffffffffffffffffffffffffffffffff1673ffffffffffffffffffffffffffffffffffffffff1673ffffffffffffffffffffffffffffffffffffffff168152602001600282015481526020016003820154815260200160048201548152602001600582015481526020016006820160009054906101000a900460ff16151515158152505081526020019060010190610ea4565b50505050905090565b600460003373ffffffffffffffffffffffffffffffffffffffff1673ffffffffffffffffffffffffffffffffffffffff16815260200190815260200160002060009054906101000a900460ff1661105a576040517f08c379a000000000000000000000000000000000000000000000000000000000815260040161105190611c82565b60405180910390fd5b600073ffffffffffffffffffffffffffffffffffffffff168273ffffffffffffffffffffffffffffffffffffffff1614156110ca576040517f08c379a00000000000000000000000000000000000000000000000000000000081526004016110c190611be2565b60405180910390fd5b6000811161110d576040517f08c379a000000000000000000000000000000000000000000000000000000000815260040161110490611c62565b60405180910390fd5b60006040518060e001604052808473ffffffffffffffffffffffffffffffffffffffff1681526020013373ffffffffffffffffffffffffffffffffffffffff168152602001428152602001600081526020016000815260200183815260200160001515815250908060018154018082558091505060019003906000526020600020906007020160009091909190915060008201518160000160006101000a81548173ffffffffffffffffffffffffffffffffffffffff021916908373ffffffffffffffffffffffffffffffffffffffff16021790555060208201518160010160006101000a81548173ffffffffffffffffffffffffffffffffffffffff021916908373ffffffffffffffffffffffffffffffffffffffff16021790555060408201518160020155606082015181600301556080820151816004015560a0820151816005015560c08201518160060160006101000a81548160ff02191690831515021790555050507f0f1edc00078b11b2ad81ae19aa56bd2af505225573b0d26b927d53a4accfc30360016000805490506112a79190611ff9565b838333426040516112bc959493929190611dbd565b60405180910390a15050565b606080600160028180548060200260200160405190810160405280929190818152602001828054801561135057602002820191906000526020600020905b8160009054906101000a900473ffffffffffffffffffffffffffffffffffffffff1673ffffffffffffffffffffffffffffffffffffffff1681526020019060010190808311611306575b5050505050915080805480602002602001604051908101604052809291908181526020016000905b82821015611424578382906000526020600020018054611397906120b7565b80601f01602080910402602001604051908101604052809291908181526020018280546113c3906120b7565b80156114105780601f106113e557610100808354040283529160200191611410565b820191906000526020600020905b8154815290600101906020018083116113f357829003601f168201915b505050505081526020019060010190611378565b505050509050915091509091565b600081600080549050811061147c576040517f08c379a000000000000000000000000000000000000000000000000000000000815260040161147390611c02565b60405180910390fd5b600083815481106114905761148f6121a7565b5b906000526020600020906007020160040154915050919050565b60055481565b8280546114bc906120b7565b90600052602060002090601f0160209004810192826114de5760008555611525565b82601f106114f757805160ff1916838001178555611525565b82800160010185558215611525579182015b82811115611524578251825591602001919060010190611509565b5b5090506115329190611536565b5090565b5b8082111561154f576000816000905550600101611537565b5090565b600061156661156184611e5e565b611e39565b9050828152602081018484840111156115825761158161220a565b5b61158d848285612075565b509392505050565b6000813590506115a481612416565b92915050565b600082601f8301126115bf576115be612205565b5b81356115cf848260208601611553565b91505092915050565b6000813590506115e78161242d565b92915050565b6000806040838503121561160457611603612214565b5b600061161285828601611595565b925050602083013567ffffffffffffffff8111156116335761163261220f565b5b61163f858286016115aa565b9150509250929050565b600080604083850312156116605761165f612214565b5b600061166e85828601611595565b925050602061167f858286016115d8565b9150509250929050565b60006020828403121561169f5761169e612214565b5b60006116ad848285016115d8565b91505092915050565b60006116c283836116fa565b60208301905092915050565b60006116da8383611867565b905092915050565b60006116ee8383611a7d565b60e08301905092915050565b6117038161202d565b82525050565b6117128161202d565b82525050565b600061172382611ebf565b61172d8185611f12565b935061173883611e8f565b8060005b8381101561176957815161175088826116b6565b975061175b83611eeb565b92505060018101905061173c565b5085935050505092915050565b600061178182611eca565b61178b8185611f23565b93508360208202850161179d85611e9f565b8060005b858110156117d957848403895281516117ba85826116ce565b94506117c583611ef8565b925060208a019950506001810190506117a1565b50829750879550505050505092915050565b60006117f682611ed5565b6118008185611f34565b935061180b83611eaf565b8060005b8381101561183c57815161182388826116e2565b975061182e83611f05565b92505060018101905061180f565b5085935050505092915050565b6118528161203f565b82525050565b6118618161203f565b82525050565b600061187282611ee0565b61187c8185611f50565b935061188c818560208601612084565b61189581612219565b840191505092915050565b60006118ab82611ee0565b6118b58185611f61565b93506118c5818560208601612084565b6118ce81612219565b840191505092915050565b60006118e6601083611f61565b91506118f18261222a565b602082019050919050565b6000611909601683611f61565b915061191482612253565b602082019050919050565b600061192c601583611f61565b91506119378261227c565b602082019050919050565b600061194f601c83611f61565b915061195a826122a5565b602082019050919050565b6000611972602383611f61565b915061197d826122ce565b604082019050919050565b6000611995601183611f61565b91506119a08261231d565b602082019050919050565b60006119b8601c83611f61565b91506119c382612346565b602082019050919050565b60006119db601083611f61565b91506119e68261236f565b602082019050919050565b60006119fe601683611f61565b9150611a0982612398565b602082019050919050565b6000611a21600083611f45565b9150611a2c826123c1565b600082019050919050565b6000611a44601883611f61565b9150611a4f826123c4565b602082019050919050565b6000611a67601383611f61565b9150611a72826123ed565b602082019050919050565b60e082016000820151611a9360008501826116fa565b506020820151611aa660208501826116fa565b506040820151611ab96040850182611b0b565b506060820151611acc6060850182611b0b565b506080820151611adf6080850182611b0b565b5060a0820151611af260a0850182611b0b565b5060c0820151611b0560c0850182611849565b50505050565b611b148161206b565b82525050565b611b238161206b565b82525050565b6000611b3482611a14565b9150819050919050565b6000604082019050611b536000830185611709565b8181036020830152611b6581846118a0565b90509392505050565b60006040820190508181036000830152611b888185611718565b90508181036020830152611b9c8184611776565b90509392505050565b60006020820190508181036000830152611bbf81846117eb565b905092915050565b6000602082019050611bdc6000830184611858565b92915050565b60006020820190508181036000830152611bfb816118d9565b9050919050565b60006020820190508181036000830152611c1b816118fc565b9050919050565b60006020820190508181036000830152611c3b8161191f565b9050919050565b60006020820190508181036000830152611c5b81611942565b9050919050565b60006020820190508181036000830152611c7b81611965565b9050919050565b60006020820190508181036000830152611c9b81611988565b9050919050565b60006020820190508181036000830152611cbb816119ab565b9050919050565b60006020820190508181036000830152611cdb816119ce565b9050919050565b60006020820190508181036000830152611cfb816119f1565b9050919050565b60006020820190508181036000830152611d1b81611a37565b9050919050565b60006020820190508181036000830152611d3b81611a5a565b9050919050565b6000602082019050611d576000830184611b1a565b92915050565b6000604082019050611d726000830185611b1a565b611d7f6020830184611709565b9392505050565b6000606082019050611d9b6000830186611b1a565b611da86020830185611709565b611db56040830184611b1a565b949350505050565b600060a082019050611dd26000830188611b1a565b611ddf6020830187611709565b611dec6040830186611b1a565b611df96060830185611709565b611e066080830184611b1a565b9695505050505050565b6000604082019050611e256000830185611b1a565b611e326020830184611b1a565b9392505050565b6000611e43611e54565b9050611e4f82826120e9565b919050565b6000604051905090565b600067ffffffffffffffff821115611e7957611e786121d6565b5b611e8282612219565b9050602081019050919050565b6000819050602082019050919050565b6000819050602082019050919050565b6000819050602082019050919050565b600081519050919050565b600081519050919050565b600081519050919050565b600081519050919050565b6000602082019050919050565b6000602082019050919050565b6000602082019050919050565b600082825260208201905092915050565b600082825260208201905092915050565b600082825260208201905092915050565b600081905092915050565b600082825260208201905092915050565b600082825260208201905092915050565b6000611f7d8261206b565b9150611f888361206b565b9250827fffffffffffffffffffffffffffffffffffffffffffffffffffffffffffffffff03821115611fbd57611fbc61211a565b5b828201905092915050565b6000611fd38261206b565b9150611fde8361206b565b925082611fee57611fed612149565b5b828204905092915050565b60006120048261206b565b915061200f8361206b565b9250828210156120225761202161211a565b5b828203905092915050565b60006120388261204b565b9050919050565b60008115159050919050565b600073ffffffffffffffffffffffffffffffffffffffff82169050919050565b6000819050919050565b82818337600083830152505050565b60005b838110156120a2578082015181840152602081019050612087565b838111156120b1576000848401525b50505050565b600060028204905060018216806120cf57607f821691505b602082108114156120e3576120e2612178565b5b50919050565b6120f282612219565b810181811067ffffffffffffffff82111715612111576121106121d6565b5b80604052505050565b7f4e487b7100000000000000000000000000000000000000000000000000000000600052601160045260246000fd5b7f4e487b7100000000000000000000000000000000000000000000000000000000600052601260045260246000fd5b7f4e487b7100000000000000000000000000000000000000000000000000000000600052602260045260246000fd5b7f4e487b7100000000000000000000000000000000000000000000000000000000600052603260045260246000fd5b7f4e487b7100000000000000000000000000000000000000000000000000000000600052604160045260246000fd5b600080fd5b600080fd5b600080fd5b600080fd5b6000601f19601f8301169050919050565b7f696e76616c696420726563656976657200000000000000000000000000000000600082015250565b7f696e76616c6964207472616e73616374696f6e20494400000000000000000000600082015250565b7f6164647220302063616e2774206265206f776e65720000000000000000000000600082015250565b7f7472616e73616374696f6e20616c726561647920657865637574656400000000600082015250565b7f63616e2774206d616b65207472616e73616374696f6e2077697468203020766160008201527f6c75650000000000000000000000000000000000000000000000000000000000602082015250565b7f7065726d697373696f6e2064656e696564000000000000000000000000000000600082015250565b7f7472616e73616374696f6e20616c726561647920617070726f76656400000000600082015250565b7f657865637574696f6e206661696c656400000000000000000000000000000000600082015250565b7f696e73756666696369656e7420617070726f76616c7300000000000000000000600082015250565b50565b7f7472616e73616374696f6e206e6f7420617070726f7665640000000000000000600082015250565b7f6f776e657220616c726561647920616464656400000000000000000000000000600082015250565b61241f8161202d565b811461242a57600080fd5b50565b6124368161206b565b811461244157600080fd5b5056fea26469706673582212204a86077673c10b9a2c37b2a73aab8f4e769ad1bf4674176d38777346ba08c3ec64736f6c63430008070033",
  "linkReferences": {},
  "deployedLinkReferences": {}
}